:020000020000FC
:02000000B7C087
:0200040018954D
:02000800189549
:02000C00189545
:02001000189541
:0200140018953D
:02001800189539
:02001C00189535
:02002000189531
:0200240018952D
:02002800189529
:02002C0013C0FF
:020030003FC0CF
:0200340034C0D6
:02003800189519
:02003C00189515
:02004000189511
:0200440018950D
:02004800189509
:02004C00189505
:02005000189501
:100054000F930FB70F931F932F93AF93BF93A0E604
:10006400B0E000916B0020916A00A00F1127B11F2E
:100074001CB11C9303950A3009F40027021719F4E4
:1000840021E020936C0000936B00BF91AF912F91FE
:100094001F910F910FBF0F9118950F930FB70F93E7
:1000A40008ED0AB90F910FBF0F9118950F930FB771
:1000B4000F931F932F933F93AF93BF93ADE6B0E09D
:1000C400009178002091770030917900313029F047
:1000D400201719F408ED0AB90BC011271093790001
:1000E400A20FB11F1C911CB923952A3009F42227B1
:1000F40020937700BF91AF913F912F911F910F9162
:100104000FBF0F911895ADE6B0E0009178002091F3
:100114007700A00F1127B11F3C93332703950A30B2
:1001240009F40027021719F431E0309379000093A1
:1001340078000895A0E6B0E000916B0020916A0079
:1001440030916C00313021F0201711F431E00BC0F4
:10015400112710936C00A20FB11F1C913327239514
:100164002A3009F4222720936A0008950FE50DBF71
:1001740004E00EBFE0E6F0E000270193F430E9F775
:10018400E036D9F7EEE1FF27EA95F083E9F703E3D8
:1001940009B900E000BD00E00BB908ED0AB906E8B2
:1001A40000BD002700936A0000936B000093770062
:1001B400009378007894BEDF3130E9F31395312F42
:1001C400A2DF313009F403D008EF0AB9F4CF0FEFFE
:1001D4001FEF21E0015010402040E0F75D9BFECF6F
:0C01E4000CB908955F9BFECF0CB108958C
:00000001FF
